{
  "abi": [
    {
      "inputs": [],
      "name": "UnlockFacet__AlreadyUnlocked",
      "type": "error"
    },
    {
      "inputs": [],
      "name": "UnlockFacet__InvalidAmount",
      "type": "error"
    },
    {
      "inputs": [],
      "name": "UnlockFacet__InvalidFeeReceivers",
      "type": "error"
    },
    {
      "inputs": [],
      "name": "UnlockFacet__InvalidUnlock",
      "type": "error"
    },
    {
      "anonymous": false,
      "inputs": [
        {
          "indexed": true,
          "internalType": "uint256",
          "name": "seasonId",
          "type": "uint256"
        },
        {
          "indexed": true,
          "internalType": "address",
          "name": "user",
          "type": "address"
        },
        {
          "indexed": false,
          "internalType": "uint256",
          "name": "amount",
          "type": "uint256"
        },
        {
          "indexed": false,
          "internalType": "uint256",
          "name": "unlockFee",
          "type": "uint256"
        }
      ],
      "name": "Unlocked",
      "type": "event"
    },
    {
      "inputs": [],
      "name": "COOLDOWN_PERIOD",
      "outputs": [
        {
          "internalType": "uint256",
          "name": "",
          "type": "uint256"
        }
      ],
      "stateMutability": "view",
      "type": "function"
    },
    {
      "inputs": [
        {
          "internalType": "uint256",
          "name": "_amount",
          "type": "uint256"
        }
      ],
      "name": "unlock",
      "outputs": [],
      "stateMutability": "nonpayable",
      "type": "function"
    }
  ],
  "bytecode": {
    "object": "0x608060405234801561001057600080fd5b506106e3806100206000396000f3fe608060405234801561001057600080fd5b50600436106100365760003560e01c80636198e3391461003b5780636e99d52f14610050575b600080fd5b61004e61004936600461057b565b61006c565b005b61005a6203f48081565b60405190815260200160405180910390f35b6002805460008181526005602090815260408083203384528252808320848452600490925290912092830154600782015492939192156100d8576040517fc7c233de00000000000000000000000000000000000000000000000000000000815260040160405180910390fd5b8254851115610113576040517f3731776200000000000000000000000000000000000000000000000000000000815260040160405180910390fd5b61011f8582858561027a565b600080600080610130600033610317565b60ff1691509150811561015e5760008181526007602090815260408083205460089092529091205490945092505b600654600061018d8b61271061017485896105c3565b61017e91906105da565b6101889085610615565b61045c565b90506101988161047e565b60006127106101aa6203f480896105c3565b6101b491906105da565b6101c16203f48042610628565b6101cb9190610615565b9050878110610206576040517ff1ddec3900000000000000000000000000000000000000000000000000000000815260040160405180910390fd5b610210828d610615565b8a60060160008282546102239190610628565b909155505060078a01819055604080518d81526020810184905233918d917f264527c9df24015c81d07cee6ed0aaa3cb7dae31d37f68c16c15c9f8f89fba7b910160405180910390a3505050505050505050505050565b60006201518061028a4286610615565b61029491906105da565b9050848360000160008282546102aa9190610615565b909155506102ba905081866105c3565b8360020160008282546102cd9190610615565b92505081905550848260050160008282546102e89190610615565b909155506102f8905081866105c3565b82600701600082825461030b9190610615565b90915550505050505050565b601c8201546040517f773c02d400000000000000000000000000000000000000000000000000000000815273ffffffffffffffffffffffffffffffffffffffff838116600483015260009283929116908290829063773c02d490602401602060405180830381865afa158015610391573d6000803e3d6000fd5b505050506040513d601f19601f820116820180604052508101906103b5919061063b565b90508015610453576040517f53f96df2000000000000000000000000000000000000000000000000000000008152600481018290526001945073ffffffffffffffffffffffffffffffffffffffff8316906353f96df290602401602060405180830381865afa15801561042c573d6000803e3d6000fd5b505050506040513d601f19601f820116820180604052508101906104509190610654565b92505b50509250929050565b600061271061046b83856105c3565b61047591906105da565b90505b92915050565b600d54600c54146104bb576040517f8867301300000000000000000000000000000000000000000000000000000000815260040160405180910390fd5b600c5460005b818110156105765760006104f5846000600d0184815481106104e5576104e561067e565b906000526020600020015461045c565b9050806000601601600080600c0185815481106105145761051461067e565b600091825260208083209091015473ffffffffffffffffffffffffffffffffffffffff9081168452838201949094526040928301822060195490941682529290925281208054909190610568908490610628565b9091555050506001016104c1565b505050565b60006020828403121561058d57600080fd5b5035919050565b7f4e487b7100000000000000000000000000000000000000000000000000000000600052601160045260246000fd5b808202811582820484141761047857610478610594565b600082610610577f4e487b7100000000000000000000000000000000000000000000000000000000600052601260045260246000fd5b500490565b8181038181111561047857610478610594565b8082018082111561047857610478610594565b60006020828403121561064d57600080fd5b5051919050565b60006020828403121561066657600080fd5b815160ff8116811461067757600080fd5b9392505050565b7f4e487b7100000000000000000000000000000000000000000000000000000000600052603260045260246000fdfea26469706673582212202c391421d661261ec74b19ce0800e339a9bd9f5a231d4d57c9f552bf885acf3664736f6c63430008110033",
    "linkReferences": {}
  },
  "methodIdentifiers": {
    "COOLDOWN_PERIOD()": "6e99d52f",
    "unlock(uint256)": "6198e339"
  },
  "id": 39
}