{
  "abi": [
    {
      "inputs": [],
      "name": "BoostFacet__BoostAlreadyClaimed",
      "type": "error"
    },
    {
      "inputs": [],
      "name": "BoostFacet__InvalidBoostLevel",
      "type": "error"
    },
    {
      "inputs": [],
      "name": "BoostFacet__InvalidFeeReceivers",
      "type": "error"
    },
    {
      "inputs": [],
      "name": "BoostFacet__UserNotParticipated",
      "type": "error"
    },
    {
      "anonymous": false,
      "inputs": [
        {
          "indexed": true,
          "internalType": "uint256",
          "name": "seasonId",
          "type": "uint256"
        },
        {
          "indexed": true,
          "internalType": "address",
          "name": "user",
          "type": "address"
        },
        {
          "indexed": false,
          "internalType": "uint256",
          "name": "boostLevel",
          "type": "uint256"
        },
        {
          "indexed": false,
          "internalType": "uint256",
          "name": "_boostPoints",
          "type": "uint256"
        },
        {
          "indexed": false,
          "internalType": "uint256",
          "name": "boostFee",
          "type": "uint256"
        },
        {
          "indexed": false,
          "internalType": "uint256",
          "name": "tier",
          "type": "uint256"
        }
      ],
      "name": "ClaimBoost",
      "type": "event"
    },
    {
      "inputs": [
        {
          "internalType": "uint256",
          "name": "boostLevel",
          "type": "uint256"
        }
      ],
      "name": "claimBoost",
      "outputs": [],
      "stateMutability": "nonpayable",
      "type": "function"
    }
  ],
  "bytecode": {
    "object": "0x608060405234801561001057600080fd5b5061075c806100206000396000f3fe608060405234801561001057600080fd5b506004361061002b5760003560e01c8063502d296714610030575b600080fd5b61004361003e3660046105d9565b610045565b005b60025460008181526005602090815260408083203384529091528120805490910361009c576040517f3a0d884600000000000000000000000000000000000000000000000000000000815260040160405180910390fd5b6004810154158015906100c05750620151808160040154426100be9190610621565b105b156100f7576040517f269eb72b00000000000000000000000000000000000000000000000000000000815260040160405180910390fd5b600080806101066000336102d4565b60ff16915091508115801561011b5750600086115b15610152576040517f3055f2cf00000000000000000000000000000000000000000000000000000000815260040160405180910390fd5b811561016a576000868152600f602052604090205492505b426004850155600082156101985750600081815260106020908152604080832089845290915290205461019d565b50600e545b60006101aa868389610419565b9050808660030160008282546101c09190610634565b909155505060058601819055841561027e576101db856104bc565b601b546040517f23b872dd0000000000000000000000000000000000000000000000000000000081523360048201523060248201526044810187905273ffffffffffffffffffffffffffffffffffffffff909116906323b872dd906064016020604051808303816000875af1158015610258573d6000803e3d6000fd5b505050506040513d601f19601f8201168201806040525081019061027c9190610647565b505b604080518981526020810183905290810186905260608101849052339088907fd3a080433deb263ff167dc354e7f90486543d360ea1e03ff1264490f3429ffef9060800160405180910390a35050505050505050565b601c8201546040517f773c02d400000000000000000000000000000000000000000000000000000000815273ffffffffffffffffffffffffffffffffffffffff838116600483015260009283929116908290829063773c02d490602401602060405180830381865afa15801561034e573d6000803e3d6000fd5b505050506040513d601f19601f820116820180604052508101906103729190610669565b90508015610410576040517f53f96df2000000000000000000000000000000000000000000000000000000008152600481018290526001945073ffffffffffffffffffffffffffffffffffffffff8316906353f96df290602401602060405180830381865afa1580156103e9573d6000803e3d6000fd5b505050506040513d601f19601f8201168201806040525081019061040d9190610682565b92505b50509250929050565b60008260000361042b575060006104b5565b600082815260046020526040812060028101549091906201518090610451904290610621565b61045b91906106a5565b905080600003610470576000925050506104b5565b85546000906104809083906106e0565b876002015461048f9190610621565b9050806000036104a557600093505050506104b5565b6104af81876105b7565b93505050505b9392505050565b601180546012805490919081146104ff576040517f44e29d8800000000000000000000000000000000000000000000000000000000815260040160405180910390fd5b60005b818110156105b057600061053286858481548110610522576105226106f7565b90600052602060002001546105b7565b9050806000601601600087858154811061054e5761054e6106f7565b600091825260208083209091015473ffffffffffffffffffffffffffffffffffffffff90811684528382019490945260409283018220601b54909416825292909252812080549091906105a2908490610634565b909155505050600101610502565b5050505050565b60006127106105c683856106e0565b6105d091906106a5565b90505b92915050565b6000602082840312156105eb57600080fd5b5035919050565b7f4e487b7100000000000000000000000000000000000000000000000000000000600052601160045260246000fd5b818103818111156105d3576105d36105f2565b808201808211156105d3576105d36105f2565b60006020828403121561065957600080fd5b815180151581146104b557600080fd5b60006020828403121561067b57600080fd5b5051919050565b60006020828403121561069457600080fd5b815160ff811681146104b557600080fd5b6000826106db577f4e487b7100000000000000000000000000000000000000000000000000000000600052601260045260246000fd5b500490565b80820281158282048414176105d3576105d36105f2565b7f4e487b7100000000000000000000000000000000000000000000000000000000600052603260045260246000fdfea26469706673582212209e56a8d048c395d96add876936c58af7510afaba0ae1963be0d236da8ba0feec64736f6c63430008110033",
    "linkReferences": {}
  },
  "methodIdentifiers": {
    "claimBoost(uint256)": "502d2967"
  },
  "id": 29
}