{
  "abi": [
    {
      "inputs": [],
      "name": "DepositFacet__FundsInPrevSeason",
      "type": "error"
    },
    {
      "inputs": [],
      "name": "DepositFacet__InvalidMiningPass",
      "type": "error"
    },
    {
      "inputs": [],
      "name": "DepositFacet__NotEnoughTokenBalance",
      "type": "error"
    },
    {
      "inputs": [],
      "name": "DepositFacet__ReentrancyGuard__ReentrantCall",
      "type": "error"
    },
    {
      "inputs": [],
      "name": "DepositFacet__SeasonEnded",
      "type": "error"
    },
    {
      "anonymous": false,
      "inputs": [
        {
          "indexed": true,
          "internalType": "uint256",
          "name": "seasonId",
          "type": "uint256"
        },
        {
          "indexed": true,
          "internalType": "address",
          "name": "user",
          "type": "address"
        },
        {
          "indexed": false,
          "internalType": "uint256",
          "name": "amount",
          "type": "uint256"
        }
      ],
      "name": "Deposit",
      "type": "event"
    },
    {
      "inputs": [
        {
          "internalType": "uint256",
          "name": "_amount",
          "type": "uint256"
        }
      ],
      "name": "deposit",
      "outputs": [],
      "stateMutability": "nonpayable",
      "type": "function"
    }
  ],
  "bytecode": {
    "object": "0x608060405234801561001057600080fd5b5061072c806100206000396000f3fe608060405234801561001057600080fd5b506004361061002b5760003560e01c8063b6b55f2514610030575b600080fd5b61004361003e3660046105cb565b610045565b005b601d54600203610081576040517f50bf8f2300000000000000000000000000000000000000000000000000000000815260040160405180910390fd5b6002601d81905560195490546040517f70a0823100000000000000000000000000000000000000000000000000000000815233600482015273ffffffffffffffffffffffffffffffffffffffff9092169182906370a0823190602401602060405180830381865afa1580156100fa573d6000803e3d6000fd5b505050506040513d601f19601f8201168201806040525081019061011e91906105e4565b831115610157576040517f8dd4747600000000000000000000000000000000000000000000000000000000815260040160405180910390fd5b600081815260056020818152604080842033808652908352818520600b8085528387205480885295855283872092875291845291852092529290911580159061019f57508254155b905060008180156101c357506000836006015411806101c35750600a83015460ff16155b60098501546000908152601860205260409020548554919250906101e890899061062c565b1115610220576040517fda9e267800000000000000000000000000000000000000000000000000000000815260040160405180910390fd5b8015610258576040517f755a09de00000000000000000000000000000000000000000000000000000000815260040160405180910390fd5b8115610265574260048501555b336000818152600b602052604081208790559081908190610287908290610397565b60ff169150915081156102a65760008181526009602052604090205492505b6102b18a89896104dc565b6040517f23b872dd000000000000000000000000000000000000000000000000000000008152336004820152306024820152604481018b905273ffffffffffffffffffffffffffffffffffffffff8a16906323b872dd906064016020604051808303816000875af115801561032a573d6000803e3d6000fd5b505050506040513d601f19601f8201168201806040525081019061034e9190610645565b506040518a8152339089907feaa18152488ce5959073c9c79c88ca90b3d96c00de1f118cfaad664c3dab06b99060200160405180910390a350506001601d555050505050505050565b601c8201546040517f773c02d400000000000000000000000000000000000000000000000000000000815273ffffffffffffffffffffffffffffffffffffffff838116600483015260009283929116908290829063773c02d490602401602060405180830381865afa158015610411573d6000803e3d6000fd5b505050506040513d601f19601f8201168201806040525081019061043591906105e4565b905080156104d3576040517f53f96df2000000000000000000000000000000000000000000000000000000008152600481018290526001945073ffffffffffffffffffffffffffffffffffffffff8316906353f96df290602401602060405180830381865afa1580156104ac573d6000803e3d6000fd5b505050506040513d601f19601f820116820180604052508101906104d0919061066e565b92505b50509250929050565b60008281526004602052604090206002810154421115610528576040517f20c02df000000000000000000000000000000000000000000000000000000000815260040160405180910390fd5b60006201518042836002015461053e9190610691565b61054891906106a4565b90508483600001600082825461055e919061062c565b9091555061056e905081866106df565b836002016000828254610581919061062c565b925050819055508482600501600082825461059c919061062c565b909155506105ac905081866106df565b8260070160008282546105bf919061062c565b90915550505050505050565b6000602082840312156105dd57600080fd5b5035919050565b6000602082840312156105f657600080fd5b5051919050565b7f4e487b7100000000000000000000000000000000000000000000000000000000600052601160045260246000fd5b8082018082111561063f5761063f6105fd565b92915050565b60006020828403121561065757600080fd5b8151801515811461066757600080fd5b9392505050565b60006020828403121561068057600080fd5b815160ff8116811461066757600080fd5b8181038181111561063f5761063f6105fd565b6000826106da577f4e487b7100000000000000000000000000000000000000000000000000000000600052601260045260246000fd5b500490565b808202811582820484141761063f5761063f6105fd56fea26469706673582212200b874ee4d12332b25770119033d24c591a0d650150de3764dd092b4670e1528964736f6c63430008110033",
    "linkReferences": {}
  },
  "methodIdentifiers": {
    "deposit(uint256)": "b6b55f25"
  },
  "id": 31
}