{
  "abi": [
    {
      "inputs": [],
      "name": "WithdrawFacet__InsufficientBalance",
      "type": "error"
    },
    {
      "inputs": [],
      "name": "WithdrawFacet__UnlockNotMatured",
      "type": "error"
    },
    {
      "anonymous": false,
      "inputs": [
        {
          "indexed": true,
          "internalType": "uint256",
          "name": "seasonId",
          "type": "uint256"
        },
        {
          "indexed": true,
          "internalType": "address",
          "name": "to",
          "type": "address"
        },
        {
          "indexed": false,
          "internalType": "uint256",
          "name": "amount",
          "type": "uint256"
        }
      ],
      "name": "WithdrawUnlockedVPND",
      "type": "event"
    },
    {
      "inputs": [],
      "name": "withdrawUnlocked",
      "outputs": [],
      "stateMutability": "nonpayable",
      "type": "function"
    }
  ],
  "bytecode": {
    "object": "0x608060405234801561001057600080fd5b50610245806100206000396000f3fe608060405234801561001057600080fd5b506004361061002b5760003560e01c80636fcd112b14610030575b600080fd5b61003861003a565b005b336000818152600b6020908152604080832054808452600583528184208585529092528220600681015460078201549293919290918290036100a8576040517f1138da8200000000000000000000000000000000000000000000000000000000815260040160405180910390fd5b428111156100e2576040517f6a3fb10500000000000000000000000000000000000000000000000000000000815260040160405180910390fd5b60006006840181905560078401556019546040517fa9059cbb00000000000000000000000000000000000000000000000000000000815273ffffffffffffffffffffffffffffffffffffffff8781166004830152602482018590529091169063a9059cbb906044016020604051808303816000875af1158015610169573d6000803e3d6000fd5b505050506040513d601f19601f8201168201806040525081019061018d91906101e6565b508473ffffffffffffffffffffffffffffffffffffffff16847fb43a979cf5312add838538436575cdc00ab42ae32fed507f6447ec4658acbe85846040516101d791815260200190565b60405180910390a35050505050565b6000602082840312156101f857600080fd5b8151801515811461020857600080fd5b939250505056fea264697066735822122053fbca539ff403bc968439a698c09d3286bc145442828987b36af742b02b4de564736f6c63430008110033",
    "linkReferences": {}
  },
  "methodIdentifiers": {
    "withdrawUnlocked()": "6fcd112b"
  },
  "id": 40
}