{
  "abi": [
    {
      "inputs": [],
      "name": "ClaimFacet__InProgressSeason",
      "type": "error"
    },
    {
      "inputs": [],
      "name": "LAuthorizable__OnlyAuthorized",
      "type": "error"
    },
    {
      "anonymous": false,
      "inputs": [
        {
          "indexed": true,
          "internalType": "uint256",
          "name": "seasonId",
          "type": "uint256"
        },
        {
          "indexed": true,
          "internalType": "address",
          "name": "user",
          "type": "address"
        },
        {
          "indexed": false,
          "internalType": "uint256",
          "name": "rewardsAmount",
          "type": "uint256"
        },
        {
          "indexed": false,
          "internalType": "uint256",
          "name": "depositAmount",
          "type": "uint256"
        }
      ],
      "name": "Claim",
      "type": "event"
    },
    {
      "inputs": [
        {
          "internalType": "uint256",
          "name": "_seasonId",
          "type": "uint256"
        },
        {
          "internalType": "address[]",
          "name": "_users",
          "type": "address[]"
        }
      ],
      "name": "automatedClaim",
      "outputs": [],
      "stateMutability": "nonpayable",
      "type": "function"
    }
  ],
  "bytecode": {
    "object": "0x608060405234801561001057600080fd5b506106c6806100206000396000f3fe608060405234801561001057600080fd5b506004361061002b5760003560e01c806380b970de14610030575b600080fd5b61004361003e3660046104a9565b610045565b005b610050600033610391565b60008281526004602052604090206002810154421161009b576040517f3fa01af900000000000000000000000000000000000000000000000000000000815260040160405180910390fd5b815160005b8181101561038a5760008482815181106100bc576100bc610598565b602090810291909101810151600088815260058352604080822073ffffffffffffffffffffffffffffffffffffffff8416835290935291822060028101546006820154929450909290919082900361011757505050506100a0565b60088301541561012a57505050506100a0565b600083600301548361013c91906105f6565b9050600061014a828a6103f4565b90506000610158828b610425565b60088701819055600a870180547fffffffffffffffffffffffffffffffffffffffffffffffffffffffffffffff001660011790556000600688018190556007880181905560048c01805492935083929091906101b5908490610609565b92505081905550808a60060160008282546101d091906105f6565b9091555050601a546040517fa9059cbb00000000000000000000000000000000000000000000000000000000815273ffffffffffffffffffffffffffffffffffffffff8981166004830152602482018490529091169063a9059cbb906044016020604051808303816000875af115801561024e573d6000803e3d6000fd5b505050506040513d601f19601f82011682018060405250810190610272919061061c565b5085546000906102839086906105f6565b6019546040517fa9059cbb00000000000000000000000000000000000000000000000000000000815273ffffffffffffffffffffffffffffffffffffffff8b811660048301526024820184905292935091169063a9059cbb906044016020604051808303816000875af11580156102fe573d6000803e3d6000fd5b505050506040513d601f19601f82011682018060405250810190610322919061061c565b50604080518381526020810183905273ffffffffffffffffffffffffffffffffffffffff8a16918f917fd27486cbbd902c694ff070c4b52eb23c8f7828d3688bd3c7293638daec288808910160405180910390a35050600190960195506100a0945050505050565b5050505050565b73ffffffffffffffffffffffffffffffffffffffff811660009081526020839052604090205460ff166103f0576040517f2c52e07400000000000000000000000000000000000000000000000000000000815260040160405180910390fd5b5050565b6007810154600090818161041086670de0b6b3a764000061063e565b61041a9190610655565b925050505b92915050565b6000670de0b6b3a7640000838360030154610440919061063e565b61044a9190610655565b9392505050565b7f4e487b7100000000000000000000000000000000000000000000000000000000600052604160045260246000fd5b803573ffffffffffffffffffffffffffffffffffffffff811681146104a457600080fd5b919050565b600080604083850312156104bc57600080fd5b8235915060208084013567ffffffffffffffff808211156104dc57600080fd5b818601915086601f8301126104f057600080fd5b81358181111561050257610502610451565b8060051b6040517fffffffffffffffffffffffffffffffffffffffffffffffffffffffffffffffe0603f8301168101818110858211171561054557610545610451565b60405291825284820192508381018501918983111561056357600080fd5b938501935b828510156105885761057985610480565b84529385019392850192610568565b8096505050505050509250929050565b7f4e487b7100000000000000000000000000000000000000000000000000000000600052603260045260246000fd5b7f4e487b7100000000000000000000000000000000000000000000000000000000600052601160045260246000fd5b8082018082111561041f5761041f6105c7565b8181038181111561041f5761041f6105c7565b60006020828403121561062e57600080fd5b8151801515811461044a57600080fd5b808202811582820484141761041f5761041f6105c7565b60008261068b577f4e487b7100000000000000000000000000000000000000000000000000000000600052601260045260246000fd5b50049056fea26469706673582212204bbf423271eeba639efd7f00bb38c9204b98b6eeab4c09db4a847450da17ec5664736f6c63430008110033",
    "linkReferences": {}
  },
  "methodIdentifiers": {
    "automatedClaim(uint256,address[])": "80b970de"
  },
  "id": 30
}