{
  "abi": [
    {
      "inputs": [],
      "name": "MiningPassFacet__InsufficientBalance",
      "type": "error"
    },
    {
      "inputs": [],
      "name": "MiningPassFacet__InvalidTier",
      "type": "error"
    },
    {
      "inputs": [],
      "name": "MiningPassFacet__SeasonEnded",
      "type": "error"
    },
    {
      "anonymous": false,
      "inputs": [
        {
          "indexed": true,
          "internalType": "uint256",
          "name": "seasonId",
          "type": "uint256"
        },
        {
          "indexed": true,
          "internalType": "address",
          "name": "user",
          "type": "address"
        },
        {
          "indexed": true,
          "internalType": "uint256",
          "name": "tier",
          "type": "uint256"
        },
        {
          "indexed": false,
          "internalType": "uint256",
          "name": "fee",
          "type": "uint256"
        }
      ],
      "name": "MiningPassPurchase",
      "type": "event"
    },
    {
      "inputs": [
        {
          "internalType": "address",
          "name": "_user",
          "type": "address"
        }
      ],
      "name": "miningPassOf",
      "outputs": [
        {
          "internalType": "uint256",
          "name": "_tier",
          "type": "uint256"
        },
        {
          "internalType": "uint256",
          "name": "_depositLimit",
          "type": "uint256"
        }
      ],
      "stateMutability": "view",
      "type": "function"
    },
    {
      "inputs": [
        {
          "internalType": "uint256",
          "name": "_tier",
          "type": "uint256"
        }
      ],
      "name": "purchase",
      "outputs": [],
      "stateMutability": "nonpayable",
      "type": "function"
    }
  ],
  "bytecode": {
    "object": "0x608060405234801561001057600080fd5b506104f9806100206000396000f3fe608060405234801561001057600080fd5b50600436106100365760003560e01c8063efef39a11461003b578063fe315a1314610050575b600080fd5b61004e6100493660046103f2565b610139565b005b61012061005e36600461040b565b60028054600090815260056020818152604080842073ffffffffffffffffffffffffffffffffffffffff909616845294815284832085516101608101875281548152600182015481840152948101548587015260038101546060860152600481015460808601529182015460a0850152600682015460c0850152600782015460e0850152600882015461010085015260098201546101208501819052600a9092015460ff16151561014090940193909352808252601890925291909120549091565b6040805192835260208301919091520160405180910390f35b601b546002546000818152600560209081526040808320338452909152902073ffffffffffffffffffffffffffffffffffffffff90921691831580610182575080600901548411155b156101b9576040517f5e8e11d200000000000000000000000000000000000000000000000000000000815260040160405180910390fd5b600981015460009081526017602052604080822054868352908220546101df9190610448565b6040517f70a08231000000000000000000000000000000000000000000000000000000008152336004820152909150819073ffffffffffffffffffffffffffffffffffffffff8616906370a0823190602401602060405180830381865afa15801561024e573d6000803e3d6000fd5b505050506040513d601f19601f820116820180604052508101906102729190610488565b10156102aa576040517f0289a60100000000000000000000000000000000000000000000000000000000815260040160405180910390fd5b60008381526004602052604090206002015442106102f4576040517fbf9dd13500000000000000000000000000000000000000000000000000000000815260040160405180910390fd5b600982018590556040517f23b872dd0000000000000000000000000000000000000000000000000000000081523360048201523060248201526044810182905273ffffffffffffffffffffffffffffffffffffffff8516906323b872dd906064016020604051808303816000875af1158015610374573d6000803e3d6000fd5b505050506040513d601f19601f8201168201806040525081019061039891906104a1565b50843373ffffffffffffffffffffffffffffffffffffffff16847fea32e0bbe6b44ae07c7113eff6123c3921029d514dc3383bfd3868da45f4f404846040516103e391815260200190565b60405180910390a45050505050565b60006020828403121561040457600080fd5b5035919050565b60006020828403121561041d57600080fd5b813573ffffffffffffffffffffffffffffffffffffffff8116811461044157600080fd5b9392505050565b81810381811115610482577f4e487b7100000000000000000000000000000000000000000000000000000000600052601160045260246000fd5b92915050565b60006020828403121561049a57600080fd5b5051919050565b6000602082840312156104b357600080fd5b8151801515811461044157600080fdfea26469706673582212206345c81d5f547541349448389522076b58417a6651ba3d26e4acf6a5c2ed636564736f6c63430008110033",
    "linkReferences": {}
  },
  "methodIdentifiers": {
    "miningPassOf(address)": "fe315a13",
    "purchase(uint256)": "efef39a1"
  },
  "id": 36
}